:020000040800F2
:1000000038050020D9010008EF290008591B000815
:10001000ED29000845030008752F000800000000C6
:10002000000000000000000000000000F3290008AC
:100030004703000800000000F1290008F529000826
:10004000F3010008F3010008F3010008F3010008C0
:10005000F3010008F3010008F3010008F3010008B0
:10006000F3010008F3010008F3010008F3010008A0
:10007000F3010008F3010008F3010008F301000890
:10008000F3010008F3010008F3010008F301000880
:10009000F3010008F3010008F3010008F301000870
:1000A000F3010008F3010008F3010008F301000860
:1000B000F3010008F3010008F3010008691B0008C0
:1000C0005D1B0008F3010008F3010008F3010008BC
:1000D000F3010008F3010008692F0008F30100088C
:1000E000F3010008F3010008F3010008F301000820
:1000F000F3010008F3010008F3010008F301000810
:10010000F3010008F3010008F3010008F3010008FF
:10011000F3010008F3010008C12A0008F3010008F8
:10012000F3010008F3010008F3010008F3010008DF
:10013000F30100080000000000000000F3010008C7
:10014000F3010008F3010008F3010008F3010008BF
:10015000F3010008F3010008F3010008F3010008AF
:10016000F3010008F3010008F3010008F30100089F
:10017000F3010008F3010008F3010008000000008B
:1001800000000000F3010008000000000000000073
:10019000F30100080000000000000000F301000867
:1001A000000000000000000000000000F301000853
:1001B000F3010008F3010008F3010008F30100084F
:1001C000F3010008DFF80CD000F0AAF8004800475F
:1001D000413100083805002006488047064800479E
:1001E000FEE7FEE7FEE7FEE7FEE7FEE7FEE7FEE7E7
:1001F000FEE7FEE76D2A0008C50100082DE9F05F63
:100200000546002092469B46884606468146402485
:100210001BE0284641464746224600F070F8534608
:100220005A46C01A914110D311461846224600F092
:1002300057F82D1A67EB01084F462246012000218E
:1002400000F04EF817EB00094E41201EA4F1010406
:10025000DFDC484631462A464346BDE8F09F40EA87
:1002600001039B0703D009E008C9121F08C0042A34
:10027000FAD203E011F8013B00F8013B521EF9D21B
:100280007047D2B201E000F8012B491EFBD2704743
:100290000022F6E710B513460A4604461946FFF752
:1002A000F0FF204610BD421C10F8011B0029FBD1B5
:1002B000801A704730B50B460146002020220124E9
:1002C00009E021FA02F59D4205D303FA02F5491B24
:1002D00004FA02F52844151EA2F10102F1DC30BD3A
:1002E000202A04DB203A00FA02F1002070479140F6
:1002F000C2F1200320FA03F3194390407047202AEB
:1003000004DB203A21FA02F00021704721FA02F3BF
:10031000D040C2F1200291400843194670470000C6
:10032000064C074D06E0E06840F0010394E8070042
:1003300098471034AC42F6D3FFF748FFB8320008B4
:10034000D8320008FEE7704790F83510022903D034
:100350008021416501207047052180F83510006833
:10036000016821F0010101600020704790F835001C
:100370007047000070B5044600F0E6F80546601CC2
:1003800002D004480078044400F0DEF8401BA0428C
:10039000FAD370BD080000202DE9F84FDFF874B1E2
:1003A00000224FF001084FF0030A4FF00F090BF144
:1003B000040E00BF0B6808FA02F42340A3426ED17A
:1003C0004D68022D01D0122D0ED1D50800EB850C01
:1003D000DCF820505607F70E09FA07F6B5430E6908
:1003E000BE402E43CCF82060066855000F790AFA0B
:1003F00005FC07F0030726EA0C06AF403743076009
:100400004E68012E05D0022E03D0112E01D0122EDF
:100410000ED18668CF6826EA0C06AF403743876066
:100420004668A6430C79C4F30014944034434460F6
:10043000C4688E6824EA0C04AE402643C6604C684B
:10044000E40060D5344C256845F480452560246877
:1004500022F0030504F480440094304C2E19D6F8A1
:10046000084895072F0F09FA07F5AC432C4DA84211
:1004700001D100251FE02B4DA84201D101251AE032
:10048000294DA84201D1022515E0284DA84201D1ED
:10049000032510E0264DA84202D104250BE032E0EE
:1004A000244DA84201D1052505E0234DA84201D1E4
:1004B000062500E00725BD402543C6F80858DBF8AF
:1004C00000405D464E689C43F60300D51C432C60FB
:1004D000DEF8004075464E689C43B60300D51C43C9
:1004E0002C600C4D08352C684E689C43F60200D5F4
:1004F0001C432C60074D0C352C684E689C43B6029B
:1005000000D51C432C60521C102AFFF453AFBDE8E9
:10051000F88F0000003C01404438024000300140A8
:10052000000002400004024000080240000C0240AB
:100530000010024000140240001802400AB181611C
:1005400070470904FBE7000001488068704700001D
:1005500008000020704770472DE9F041044600680C
:10056000416946680025CF43F90506D4F143C90522
:1005700003D46FF4807101254161B80508D4F043BC
:10058000C00505D421686FF4007045F0020548618C
:10059000780527D4F043C00524D494F83E30628D0A
:1005A00094F83D00216B202B08D13AB9212810D0B6
:1005B00029280ED0282801D121290AD021686FF4DA
:1005C0008060486194F83E0045F00405102804D08E
:1005D00008E0204601F082FE04E02068016841F452
:1005E00000710160380508D4F043C00505D42168C6
:1005F0006FF4006045F008054861002D07D0206CBD
:10060000284320642046BDE8F04101F0F3BABDE87C
:10061000F0812DE9F041026800245168C56A90F824
:100620003E3090F83D60102B1CD0402B1AD0036C4C
:10063000002B7ED053694FF02805DB439F0779D408
:10064000CF43BF0576D4016C01B1946990F83D3079
:1006500000219D430B467FD0C91E516180F83C307C
:10066000BDE8F081946953694FF42A07DB435FEAE0
:10067000C37C4FF02A4604D0BD42F1D0B542EFD042
:1006800010E0CD43AD050DD4C16AB94201D10121BD
:1006900003E0C16AB14201D10821C162BDE8F04165
:1006A00001F062BD1D0716D4CD43AD0513D4416CD6
:1006B000C9B21161416B11B9826B002AD0D0C96BEC
:1006C00019B9816BC96B0029CAD00068416841F42F
:1006D00000614160C4E79D0706D4CD43AD0503D456
:1006E000BDE8F04101F0B4BCE443526864074FEA4E
:1006F000025215D4002AB3DB1A0608D4CA435205A5
:1007000005D45A0705D5BDE8F04101F01FBC5A07D2
:10071000A6D4C9438905A3D4BDE8F04101F0D4BBF8
:10072000002A9DDB5A060CD4CA43520509D45A0745
:1007300002E00FE023E00FE005D5BDE8F04101F055
:1007400079BB5A078CD4C943890589D4BDE8F041E7
:1007500001F007BB94696DE7556825F48065556025
:10076000E243540700D50121120601D5828900E039
:10077000028B80F83C3092B2FFF7EDFE70E7DC06AA
:1007800006D4CC43A40503D4BDE8F04101F0E8BD94
:10079000212E27D0292E25D05C0655D4CC436405C4
:1007A00052D45B0752D590F83D10438D002B91D069
:1007B0001269436A1A70426A521C4262428D521E8A
:1007C0004285428D002A85D12A29D7D101684A68FD
:1007D00022F480624A602221016380F83D5000F0DB
:1007E00023FB3DE71C0623D4CC43640520D45B07E0
:1007F00020D590F83D10438D002BBFD0436A1B7865
:100800001361426A521C4262428D521E4285428DE1
:10081000002AB3D12929B1D101684A6822F4806243
:100820004A602121016380F83D5000F0FEFA17E78D
:100830005B07A3D4C9438905A0D4418D00299DD06D
:10084000416A097811610AE05B0797D4C9438905B9
:1008500094D4418D002991D01169426A1170416A86
:10086000491C4162418D491E4185F9E670470000EF
:1008700070B504001BD094F83D00002520B984F821
:100880003C50204600F08AFA242084F83D0020687D
:10089000016821F00101016000F0FAFB4D4A616836
:1008A000914201D84C4900E04C49884201D20120D4
:1008B00070BD4B492368B0FBF1F15E6826F03F063E
:1008C0000E435E606368934206D94FF496735943B2
:1008D0004FF47A73B1FBF3F12368491C1E6A26F0CA
:1008E0003F06314319626168914210D84900401EA9
:1008F000B0FBF1F2521CC2F30B02042A01D2042015
:1009000022E0B0FBF1F0401CC0F30B001CE0A36838
:10091000F3B301EBC10202EB0116421EB2FBF6F289
:10092000521C42F48042120549D093B301EBC1023C
:1009300002EB0111401EB0FBF1F0401CC0F30B00B4
:1009400040F4804040F400402168CA694CF6FF73CF
:100950009A431043C861D4E90701084321680A6833
:1009600022F0C00210430860D4E90301014320686B
:10097000826848F2FF339A4311438160D4E905014C
:1009800008432168CA6822F0FF021043C86001E0F2
:100990000EE016E02068016841F001010160256465
:1009A000202084F83D00256384F83E50002070BD6F
:1009B00001EB4106421EB2FBF6F2521CB3E70120E6
:1009C000C2E701EB4101401EB0FBF1F0401CC0F357
:1009D0000B00B7E7A086010080841E0000093D00DF
:1009E00040420F00704770477047704770470000E3
:1009F0002DE9FF4F83B09A46DDE9119793460446EF
:100A0000DDF84080FFF7A0FD054694F83D00202862
:100A100070D11923012271492046009501F04EFD45
:100A20000028F5D194F83C00012863D0012084F817
:100A30003C0020680168C90703D1016841F0010149
:100A400001602068016821F400610160222084F8BF
:100A50003D00402084F83E0000262664C4F824802F
:100A6000A4F82A90608D20855D48E062CDE900758C
:100A700053465A462046049901F0BDFB00287CD11C
:100A8000208DD0B1012821D00228206824D04169CE
:100A900080690090208D032869D801282BD0514906
:100AA00002283B464FF00002009559D08846204668
:100AB00001F004FD002860D13CE0206841698169B3
:100AC0000091016841F40071016077E020680168DD
:100AD00021F480610160F0E7016821F48061016028
:100AE0002068016841F40061016020684169806903
:100AF000009063E06FE02A463946204601F05DFD34
:100B000098BB20680069616A08704EE0206801683F
:100B100041F40071016020680069616A0870606AD0
:100B2000401C6062218D491E2185618D491E6185B1
:100B3000216838E02068016821F480610160206844
:100B40000069616A0870606A401C6062208D401E06
:100B50002085608D401E60853B4600224146009501
:100B6000204601F0ABFC00B9D0E706E0FFE72A46DB
:100B70003946204601F021FD18B1012007B0BDE83B
:100B8000F08F20680069616A0870606A401C6062CA
:100B9000218D491E2185618D491E618521684A6923
:100BA000D24352070AD409690170606A401C60622E
:100BB000208D401E2085608D401E6085208D002880
:100BC0007FF468AF202084F83D0084F83E6084F80C
:100BD0003C600020D2E70220D0E7000002001000B5
:100BE0000000FFFF04000100F8B50024DDE90676EF
:100BF000009490F83D50202D60D1314D46F2A81C54
:100C00002D68B5FBFCF505EBC50C0CEB0515009547
:100C10006D1E009506D00568AD69ED43AD070DD496
:100C2000009DF5E740F8304F20214173847301693E
:100C300041F02001016104730120F8BD90F83C509F
:100C4000012D3BD0012580F83C500568D5F800C047
:100C50005FEACC7C05D1D5F800C04CF0010CC5F89A
:100C600000C00568D5F800C02CF4006CC5F800C0C1
:100C7000222580F83D50402580F83E5004644762AC
:100C80004685458D05850F4DC56241648264C36408
:100C9000046501680A6842F480620A6001680A68B3
:100CA00042F480720A6080F83C40018D21B10068F6
:100CB000416841F4E06141600020F8BD0220F8BDC8
:100CC000140000200000FFFFF8B50024DDE90676DF
:100CD000009490F83D50202D59D12E4D46F2A81C7D
:100CE0002D68B5FBFCF505EBC50C0CEB0515009567
:100CF0006D1E009506D00568AD69ED43AD070DD4B6
:100D0000009DF5E740F8304F20214173847301695D
:100D100041F02001016104730120F8BD90F83C50BE
:100D2000012D34D0012580F83C500568D5F800C06D
:100D30005FEACC7C05D1D5F800C04CF0010CC5F8B9
:100D400000C00568D5F800C02CF4006CC5F800C0E0
:100D5000212580F83D50402580F83E5004644762CC
:100D60004685458D05850C4DC56241648264C3642A
:100D7000046501680A6842F480720A6080F83C40A9
:100D80000068416841F4E06141600020F8BD022044
:100D9000F8BD0000140000200000FFFF10B586B071
:100DA000044614216846FFF773FA1C4920688842FC
:100DB00031D11B48016841F00201016000686946B9
:100DC00000F0020005904FF4407000901220019056
:100DD0000120029003200390042004901148FFF7A3
:100DE000DBFA0F481030016841F40011016000681F
:100DF000002200F40010059011461F2000F07EF83C
:100E00001F2000F06DF800221146202000F076F837
:100E1000202000F065F806B010BD0000005400402E
:100E20003038024000040240704770470248816831
:100E30000278114481607047080000200B4810B50B
:100E4000016841F400710160016841F48061016052
:100E5000016841F480710160032000F06FF8002008
:100E600000F006F800F024F8002010BD003C02401D
:100E700070B50D4D04464FF47A712878B1FBF0F04F
:100E80000A490968B1FBF0F000F010FB48B9102CDA
:100E900007D200222146501E00F030F800206C607E
:100EA00070BD012070BD000008000020140000206B
:100EB0000A4808B5016841F480410160006800F407
:100EC000804000900548001F016841F0805101609A
:100ED000006800F08050009008BD000044380240D7
:100EE000002809DB00F01F02012191404009800029
:100EF00000F1E020C0F8001170470000F0B40E4B84
:100F00001B680C46C3F30223C3F10705042D00D967
:100F10000425191D072901D2002300E0DB1E01264C
:100F200006FA05F1491E214099409E40761E164062
:100F30003143F0BC02F034B80CED00E0064900F09B
:100F4000070208684FF6FF03184040EA0220034AF0
:100F500010430860704700000CED00E00000FA0547
:100F60002DE9F0470E46050065D0DFF81481D8F86A
:100F70000000F7B200F00F00B04207D288F800700E
:100F8000D8F8000000F00F00B04254D128683D4C62
:100F9000810712D5400703D5206840F4E050206057
:100FA0002878000703D5206840F46040206020685E
:100FB000A96820F0F000084320602878C0072DD0F1
:100FC000304968680839012812D0022813D0032854
:100FD00011D00968890700292DDA216821F0030161
:100FE00001432160FFF7B0FA814641F2883A0EE0F2
:100FF00009688903EFE709688901ECE7FFF7A4FABC
:10100000A0EB0901514502D90320BDE8F087206813
:10101000696800F00C00B0EB810FEFD1D8F8001038
:10102000404601F00F01B14207D90770006800F097
:101030000F00B04201D00120E7E72878400705D52E
:101040002068E96820F4E050084320602878000711
:1010500006D52068296920F4604040EAC10020607C
:1010600000F036F82168084AC1F30311515CC8400A
:10107000064908600020FFF7FBFE0020C5E70000DE
:10108000003C024008380240A03200081400002052
:101090000448054900680968044AC1F38221515C8B
:1010A000C84070471400002008380240B0320008E1
:1010B0000448054900680968044AC1F34231515C9B
:1010C000C84070471400002008380240B0320008C1
:1010D000224810B5006810F00C02214815D02149B3
:1010E000042A11D01D4C241F082A0FD00C2A0CD121
:1010F0002268236802F03F025B0221D52068C0F31A
:101100008810A0FB010120E0084610BD226823687A
:1011100002F03F025B0205D52068C0F38810A0FBF7
:10112000010104E02168C1F38811A1FB0001002343
:10113000FFF764F82168C1F30141491C49000AE046
:101140002168C1F38811A1FB00010023FFF756F8C5
:101150002168C1F30271B0FBF1F010BD0838024004
:101160000024F40040787D012DE9F84F0546DFF8B2
:1011700028B30078ABF10407C007A7F1040451D0ED
:10118000DBF800105846C1F3810101290FD0016836
:10119000C1F38101022902D13968490207D40068EC
:1011A000C0F38100032809D13868400206D52068C1
:1011B000800337D56868002872D033E06868B0F5DE
:1011C000803F10D0B0F5A02F206810D020F48030E0
:1011D0002060206820F4802020606868A8B1FFF7B4
:1011E000B3F906460DE0206840F48030F4E740F49F
:1011F00080202060F7E700BFFFF7A6F9801B642876
:1012000078D820688003F7D50CE0FFF79DF90646F3
:1012100005E000BFFFF798F9801B6428F0D820682C
:101220008003F7D42878DFF8749280074FF0000A23
:1012300046D5DBF80010584611F00C0F0FD00168AE
:10124000C1F38101022902D13968490207D500683A
:10125000C0F38100032809D13868400206D4206811
:10126000800715D5E86801281AD111E0E868C0B1F7
:101270000120C9F80000FFF767F9064605E000BF46
:10128000FFF762F9801B0228BAD820688007F7D5DB
:101290002068296920F0F80040EAC10020600FE0D2
:1012A000F7E0C9F800A0FFF74FF9064605E000BFD8
:1012B000FFF74AF9801B02281CD820688007F7D462
:1012C0002878000727D5DFF8D0817548696908F1CB
:1012D0006C0881B101210160FFF736F9064604E090
:1012E000FFF732F9801B022804D8D8F800008007E5
:1012F000F6D510E089E0C0F800A0FFF725F9064612
:1013000005E000BFFFF720F9801B02287DD8D8F840
:1013100000008007F6D42878400769D55E484FF072
:10132000000838300068C0000BD45B4838300168D2
:1013300041F08051016000684FF0010800F08050DA
:101340000090584E3068C00511D4306840F4807069
:101350003060FFF7F9F8009006E000BFFFF7F4F8FF
:101360000099401A022850D83068C005F6D54A4E78
:10137000A868683601280FD00528306810D020F002
:1013800001003060306820F004003060A868B8B117
:10139000FFF7DAF800900FE0306840F00100F4E762
:1013A00040F004003060F7E7FFF7CEF80099411AEB
:1013B00041F28830814264D830688007F4D50EE06D
:1013C000FFF7C2F8009007E0FFF7BEF80099411A56
:1013D00041F28830814254D830688007F4D4B8F1A3
:1013E000000F05D02C483830016821F08051016091
:1013F000A869A8B3DBF80010C1F38101022948D025
:101400000228C9F860A005D000E03AE0FFF79CF898
:10141000054639E0FFF798F8064604E0FFF794F830
:10142000801B02282DD820688001F7D4F5E9070138
:101430000843E9681C4A490802EB0141AA6841EAED
:1014400082110843297C40EA0160297D40EA01704D
:1014500038600120C9F86000FFF776F8054606E01D
:1014600015E000BFFFF770F8401B022809D820687C
:101470008001F7D50BE000BFFFF766F8401B02289C
:1014800002D90320BDE8F88F20688001F4D4002041
:10149000F8E70120F6E70000083802400000474264
:1014A000800E4742007000400000FFFF10B5401E54
:1014B000B0F1807F01D3012010BD4FF0E0246061C6
:1014C0000F21601701F06CFD0020A0610720206152
:1014D000002010BD7047704770B590F83C20012A7D
:1014E00019D0012400F83C4F0222427050F83C3CD5
:1014F0005A689D6822F070060A684968324325F0F0
:10150000800529435A6050F83C2C916044700021BA
:101510000170084670BD022070BD10B5040003D0F4
:1015200094F83D0010B107E0012010BD002084F8C0
:101530003C00204600F00CF8022084F83D00211DFC
:10154000206801F0C3FA012084F83D00002010BD9E
:1015500008B500680B49884212D10B48016841F078
:10156000100101600068002200F010000090114698
:101570003620FFF7C3FCBDE808403620FFF7B0BCBB
:1015800008BD000000100040403802400168CA68F1
:1015900042F00102CA600068816801F00701062973
:1015A00003D0016841F001010160002070477047DD
:1015B00070B50446006801694FF00005C94389070A
:1015C00015D4C168C943890711D4E91E01610120FE
:1015D0002077206880698007204602D0FFF7E7FF68
:1015E00004E000F098F8204600F096F8257720688F
:1015F0000169C943490717D4C168C943490713D4CE
:101600006FF004010161022020772068806910F4E6
:10161000407F204602D0FFF7CAFF04E000F07BF8CD
:10162000204600F079F8257720680169C943090749
:1016300016D4C168C943090712D46FF008010161CB
:10164000042020772068C0698007204602D0FFF779
:10165000AEFF04E000F05FF8204600F05DF825776B
:1016600020680169C943C90617D4C168C943C906BE
:1016700013D46FF010010161082020772068C06941
:1016800010F4407F204602D0FFF791FF04E000F005
:1016900042F8204600F040F8257720680169C943E8
:1016A000C90708D1C168C943C90704D1891E0161AE
:1016B000204600F033F820680169C943090609D4BF
:1016C000C168C943090605D46FF080010161204655
:1016D000FFF700FF20680169C943490609D4C168C2
:1016E000C943490605D46FF040010161204600F06E
:1016F0002BF820680169C94389060BD4C168C94326
:10170000890607D46FF0200101612046BDE87040D2
:10171000FFF7E1BE70BD70477047000010B5074C81
:10172000606801F0C1F8606800F0D8F9052204494A
:10173000044800F002F90120207010BD00000020D4
:1017400040000020DC0000207047704770B5026840
:1017500004461068D168536910F00F0F50D003F0A1
:10176000010501F4907635435DD0C20705D0CA0566
:1017700003D5E26B42F00102E263420705D5DA07C6
:1017800003D0E26B42F00202E263820705D5DA077A
:1017900003D0E26B42F00402E263020705D5DA07E8
:1017A00003D0E26B42F00802E263E26B002A33D01E
:1017B000800604D5880602D5204601F001FA20688B
:1017C0004069E16BC0F38010090700D428B32046BC
:1017D00001F0E8F92068416949061AD5416921F00C
:1017E00040014161606BA0B11B490165606BFEF770
:1017F000ABFD002810D0606B016DBDE8704008475C
:10180000830610D58B060ED52046BDE8704001F04A
:10181000D7B92046FFF799FF70BD2046FFF795FF27
:101820000020E06370BD030606D50B0604D52046F4
:10183000BDE8704001F066BB4006F3D54806F1D51F
:10184000D168204621F04001D160202184F8391070
:1018500000F092F870BD0000952B000870B50400F0
:1018600004D094F83900002510B106E0012070BDC5
:1018700084F83850204600F023F8242084F83900FA
:101880002068C16821F40051C160204601F0E4F9EC
:101890002068016921F4904101612068416921F0CB
:1018A0002A0141612068C16841F40051C160E563CB
:1018B000202084F8390084F83A00002070BD000030
:1018C00010B586B0044614216846FEF7E1FC1749BE
:1018D0002068884228D11648016841F4003101602F
:1018E000006800F40030059011481038016841F09C
:1018F000010101600068694600F0010005900C20BC
:101900000090022001900120029003200390072004
:1019100004900848FEF740FD002211462620FFF7FC
:10192000EDFA2620FFF7DCFA06B010BD00440040B7
:101930004038024000000240704790F83930202BB8
:1019400018D1A9B1A2B190F83830012B12D00162A0
:101950008284C2840021C163212280F8392080F86A
:1019600038100068C16841F08001C16000207047F4
:101970000120704702207047704700002DE9FC41AC
:10198000804601265348CDE9000633461022BE2189
:101990004046FFF799F90220FEF7ECFC4D48012381
:1019A000401CCDE900062022BE214046FFF78CF9FD
:1019B0000220FEF7DFFC47480123801CCDE900062A
:1019C0002122BE214046FFF77FF90220FEF7D2FC1C
:1019D00040480123C01CCDE900062222BE2140461A
:1019E000FFF772F90220FEF7C5FC3A4C02252034BD
:1019F0000123B022BE214046CDE90045FFF7F4F8AF
:101A00000220FEF7B7FC2078A4F1160740083870D2
:101A10006078012340087870CDE900463522BE2168
:101A20004046FFF7E1F80220FEF7A4FC2078B870EA
:101A30000123B222BE214046CDE90045FFF7D4F88C
:101A40000220FEF797FCB978207801F0030240EA03
:101A50000220C208201D01F00C01028062780123DF
:101A600042EA8111C9084180B622BE214046CDE933
:101A70000045FFF7B9F80220FEF77CFC164E2088DF
:101A80000123B080BA22BE214046CDE90045FFF7D0
:101A9000ABF80220FEF76EFC2088F0800123BC2208
:101AA000BE214046CDE90045FFF79EF80220FEF733
:101AB00061FC20883081BE22012311464046CDE9D9
:101AC0000045FFF791F80220FEF754FC2088708152
:101AD000BDE8FC81180000202C010020FEB51C4C44
:101AE0004FF47A7104220094CDE901210123A82248
:101AF000BE21FEF77DFF1748B4F90030211D038099
:101B0000B4F9022042804C880988651AB0F908406F
:101B1000121B5543B0F90A20121B95FBF2F2114437
:101B20000B4A203A02F10A041161657824782E1BD1
:101B3000B0F90450B0F906005B1B5E43401B96FBF6
:101B4000F0F020445061283211705070FEBD00004A
:101B5000380000202C010020FEE700000148FEF7BD
:101B6000FBBC0000480000200148FEF752BD000009
:101B70004800002010B5806B90F83D30426B00218A
:101B8000D163826BD1630268146824F480641460AA
:101B90004185426B1165826B11650268146824F0FF
:101BA0000104146090F83D202024602A0BD02822E4
:101BB00032EA03030FD080F83D4080F83E1000BFAA
:101BC000FEF754FE10BD80F83D4080F83E100164E1
:101BD000FEF7C0FC10BD03681C6844F001041C60E3
:101BE00003681C6844F480641C60016380F83D2035
:101BF000E6E7000070B5044690F83D0094F83E100A
:101C0000102906D1222804D121680A6822F4006232
:101C10000A60282131EA00024FF000054FF020064B
:101C200026D021684968090503D4602801D084F8CA
:101C30003D60256384F83E5020684168090537D52A
:101C4000416821F400614160606B90F835203749AC
:101C5000012A11D00165606BFEF776FB38B320686E
:101C6000016821F00101016084F83D60606B1CE0B7
:101C7000256384F83D10DFE7A06B0165A06BFEF7DC
:101C800063FBA0B120684169C943490605D40069D6
:101C9000616A0870606A401C60622068016821F017
:101CA0000101016084F83D60A06B016D884710E080
:101CB00094F83D10602923D04169C943490605D4F1
:101CC0000069616A0870606A401C60622046FEF725
:101CD000CDFD94F83D00216C490710D528280ED180
:101CE0002068416821F4E06141601148E0622563A9
:101CF00084F83D6084F83E502046FEF773FE70BDC8
:101D000084F83D6025644169C943490605D40069EA
:101D1000616A0870606A401C60622068016821F096
:101D2000010101602046FEF715FCD2E7751B000893
:101D30000000FFFF01684A69D24352050FD46FF4D7
:101D400080624A61002140F8301F20224273817373
:101D5000026942F004020261017301207047002011
:101D6000704710B5C26A438D0168042B06D0438DBD
:101D7000032B08D0438D022B1DD012E04A6822F4B9
:101D800080624A600CE04B6823F480634B60042A55
:101D900006D0022A04D001680A6822F480620A6030
:101DA00001680969426A1170416A491C4162418DAA
:101DB000491E418510BD012A30D0102A2ED0042A98
:101DC00030D0022A2ED00A6842F400720A600168FC
:101DD0000969426A1170416A491C4162428D521E72
:101DE0004285026812690A70416A491C4162418D4C
:101DF000491E418501684A6822F440724A602021E8
:101E000080F83D1090F83E200021402A80F83E10D6
:101E10000CD012210163FEF7E6FD10BD0A6822F422
:101E20008062D3E70A6842F48062CFE70163FEF77D
:101E3000DCFD10BD10B590F83D10222914D1418D64
:101E4000032912D901680969426A1170416A491C63
:101E50004162418D491E4185418D032904D10068AD
:101E6000416821F48061416010BDC26A022AFBD042
:101E7000012901D00029F7D101680A6822F48062A3
:101E80000A6001684A6822F4E0624A6001680969F0
:101E9000426A1170416A491C4162418D491E418567
:101EA000202180F83D1090F83E200021402A80F843
:101EB0003E1004D012210163FEF795FD10BD0163B1
:101EC000FEF793FD10BD000010B5C26A90F83D10FA
:101ED00021290BD1418D51B1416A02680978116104
:101EE000416A491C4162418D491E418510BD202334
:101EF0000021082A13D0202A11D012F5803F0ED0DD
:101F00000268546824F4E06454601122026380F88B
:101F10003E1080F83D3000BFFEF766FD10BD026840
:101F2000546824F4E06454600268146844F4007453
:101F30001460016380F83D3090F83E2080F83E1038
:101F4000402AE9D1FEF752FD10BD000010B590F80F
:101F50003D1090F83E30C26A048D64B1212903D04F
:101F6000402B21D122291FD1418DA1B390F83E10E1
:101F7000402937D046E02129F2D120230021082A28
:101F800013D0202A11D012F5803F0ED00268546879
:101F900024F4E06454601122026380F83E1080F85B
:101FA0003D3000BFFEF720FD10BD0268546824F4E8
:101FB000E06454600268146844F4007414600163BF
:101FC00080F83D3090F83E2080F83E10402AE9D15C
:101FD000FEF70CFD10BDFFE70068416821F4806149
:101FE0004160F7E7016DC1B1016D012922D0016D9A
:101FF0000229EFD190F83D10222923D090F83D100E
:102000002129E7D1416A026809781161416A491CB6
:102010004162418D491E4185DCE7C16C0129816C1B
:1020200002D0C1F3072107E00268C9B21161016D56
:10203000891C05E0816CC9B202681161016D491CFF
:102040000165C7E70068016841F480710160C1E77C
:1020500078B590F83E50C26A036B90F83D6000245A
:102060000168222E7AD1066D0EB9402D76D0056D0D
:102070001DB90569B5F5404F09D0458D05B3468DAD
:10208000384D012E0ED0438D022B3AD05DE04A69C7
:102090008A6900920A6842F480720A60016D491CE4
:1020A000016578BDAA4213D10A6822F480620A60F1
:1020B00001684A68120503D50A6822F4806216E0B6
:1020C0004A698A6900920A6842F400720A6039E03B
:1020D000082A10D0202A0ED0122B0AD0042A03D0AE
:1020E000022A01D0102AE7D10A6842F480620A600D
:1020F00024E0012AE0D00A6822F480620A600168C4
:10210000DEE7042A21D0022A1FD0102A1DD00B6836
:1021100023F480630B6001680B6843F400630B6079
:1021200001684B681B0509D5AA4212D0012A10D0BC
:10213000082A0ED0102A0CD0202A0AD001684A6939
:1021400089690091046578BD08E00B6843F48063F9
:10215000E5E74A6842F480524A60EFE748698869D7
:102160000090F0E70000FFFF90F83E10402910D0EB
:102170000169B1F5804F19D0016DB1B3016D01292D
:1021800010D1416C5FF0F10201F4407142EAD111CB
:1021900006E0016D0029416C05D0C9B241F0010192
:1021A00000680161704701F0FE01F9E790F83D1009
:1021B0002129416C07D0C9B241F0010102681161C7
:1021C000416B31B902E001F0FE01F7E7826B002AB2
:1021D000E8D0C96B19B9816BC96B0029E2D00068DE
:1021E000416841F4006141607047FFE7416CF022B3
:1021F00001F44071CAE72DE9F84F044600688946AA
:102200000B9D01689846174641F480610160206883
:10221000016841F48071016000954FF0011A0022BD
:10222000514620460A9B00F049F9002853D1216805
:1022300009F0FE0008610AF1010B2B4659462046C1
:102240000A9A00F06FF9F0BB20684169806900903C
:102250002A4620460A9900F0E3F940B1206C042890
:1022600039D12068016841F40071016033E0FEB2A9
:10227000B8F1010F09D02168380A08612A462046C2
:102280000A9900F0CDF90028E8D1206806612A46B5
:1022900020460A9900F0C4F90028DFD120680168BF
:1022A00041F48071016000950022514620460A9B4E
:1022B00000F004F938B9216809F0FF0040F001008E
:1022C00008612B4600E006E0594620460A9A00F0D5
:1022D00029F9002800D00120BDE8F88F2DE9F04150
:1022E00090F83D40C26A002320261C4F01686FF41D
:1022F0008065082A01D0202A01D1282C04D0212C65
:1023000016D04D61BDE8F081C7624A6822F4E062F0
:102310004A6001684D6101680A6822F480620A60BF
:10232000036380F83D6080F83E30FEF75BFBE9E731
:10233000C7622122026380F83D6080F83E304A681F
:1023400022F4E0624A6001684D6101680A6822F483
:1023500080620A60FEF769FDD4E700000000FFFF1D
:10236000F8B590F83D6004460068416821F4E061EA
:1023700041602068002541690091016841F0010138
:1023800001602068016821F4806101602068416873
:10239000090520D5474F222E48D02A2E46D0616B02
:1023A000096849686185618D19B1216C41F00401AA
:1023B0002164416821F400614160606BFDF7D6FF44
:1023C000012808D0606B0765606BFDF7BDFF10B199
:1023D000606B016D8847608D08B320684169C9430F
:1023E000490708D40069616A0870606A401C60622D
:1023F000608D401E608520684169C943490608D444
:102400000069616A0870606A401C6062608D401EED
:102410006085608D18B1206C40F004002064206C51
:1024200000B32046BDE8F840FFF7E4BBA16B0968A4
:1024300049686185618D19B1216C41F00401216405
:10244000416821F400614160A06BFDF78FFF012816
:10245000C1D0A06B0765A06BFDF776FF0028BAD04E
:10246000A06BB6E72A2E06D12563282084F83D000C
:102470002046FEF7D9FC94F83D10202028290DD0E5
:10248000216B222901D0222E07D1256384F83D003B
:1024900084F83E502046FEF7C7FCF8BD0649E162CD
:1024A000256384F83D0084F83E502046FEF79AFAF2
:1024B000F8BD0000751B00080000FFFF2DE9F04784
:1024C0001E4690460D460446C1F30747DDF82090AE
:1024D00008E0701C06D0FEF737F8A0EB0900B04208
:1024E0000FD876B12068012F18D0806925EA000046
:1024F0000004000C14D000214145EAD00020BDE8C2
:10250000F087002044F8300F20216173A073216907
:1025100041F02001216120730120F0E74069E5E7E7
:102520000121E9E72DE9F0479A4691460E46044617
:1025300000254FF02008C1F3074725E020684069D7
:10254000C043400514D42068016841F40071016063
:1025500021686FF480604861256384F83D8084F8C9
:102560003E50206C40F00400206484F83C501FE092
:10257000B9F1FF3F08D0FDF7E7FFA0EB0A0149459D
:102580000CD8B9F1000F09D02068012F13D0806951
:1025900026EA00000004000C0BD0CFE744F8305FBF
:1025A00084F80D80A573206940F020002061257318
:1025B0000120BDE8F0874069EAE72DE9F0410025F8
:1025C00090460E460446202717E04069C043C006E7
:1025D0000CD454F8301B6FF01000486144F81059C7
:1025E0006777A577206A2062257717E0FDF7ACFFB3
:1025F000A0EB0800B04208D83EB120684169C94349
:102600004906E2D40020BDE8F08144F8305F6773EA
:10261000A573206940F02000206125730120F2E7B6
:1026200070B516460D4604460DE02046FFF782FBC6
:1026300008B1012070BD681C05D0FDF785FF801B27
:10264000A84207D835B120684069C0430006ECD4E1
:10265000002070BD002044F8300F20216173A0736A
:10266000216941F0200121612073E2E710B50446A1
:102670002820FDF77FFE3F21204600F0A2F8012030
:10268000FDF778FE0C21204600F09BF80120FDF7B5
:1026900071FE0121204600F094F80220FDF76AFE49
:1026A0000621204600F08DF8BDE810400120FDF71E
:1026B00061BE000070B50D4C05460DA1637822790E
:1026C000104800F059FC02220E49284600F024F878
:1026D00060880DA142BA0B4800F04EFC2846BDE8C8
:1026E00070400122074900F017B8000040000020A8
:1026F00054454D503A2564432048554D3A256425AC
:10270000250000001C0100205052455353555245EE
:102710003A2564685061000070B50D460646012AEE
:1027200009D0022A1AD1C02100F04BF80120FDF790
:1027300021FE002419E0802100F043F80120FDF77C
:1027400019FE002405E0295D304600F049F8641CBC
:10275000E4B22846FDF7A7FDA042F4D870BD295D7C
:10276000304600F03DF8641CE4B22846FDF79BFDBE
:10277000A042F4D870BD2DE9F04117460E4605463B
:1027800000240DE0686826FA04F202F0010230F835
:102790001410286850F82400FDF7D0FE641CE4B241
:1027A000BC42EFD3A98A01222869FDF7C7FE0120A8
:1027B000FDF7E0FDA98A2869BDE8F0410022FDF798
:1027C000BDBE70B50D460446818980680022FDF7C4
:1027D000B5FE29462046BDE870400822FFF7CBBF72
:1027E00070B50D460446818980680122FDF7A6FE7A
:1027F00029462046BDE870400822FFF7BCBF000014
:102800007CB5054601242748CDE9000423460B2268
:10281000BA212846FEF758FA0220FDF7ABFD214801
:102820000123401CCDE900041022BA212846FEF7FE
:102830004BFA0220FDF79EFD1A480123801CCDE9CA
:1028400000041122BA212846FEF73EFA0220FDF7C5
:1028500091FD14480123C01CCDE900041222BA21C5
:102860002846FEF731FA0220FDF784FD0D480123CA
:10287000001DCDE900041422BA212846FEF724FAEF
:102880000220FDF777FD07480123401DCDE9000434
:102890001A22BA212846FEF717FABDE87C4002202A
:1028A000FDF768BD1C0000202DE9FE438046032093
:1028B000144CCDE900404FF47A7601232822BA2146
:1028C00002964046FEF794F82068A4F12007C0F372
:1028D0000B3004F10805010AB861A970E870022004
:1028E000CDE9004001232B22BA2102964046FEF793
:1028F0007FF820886421B0FBF1F0F8612871BDE811
:10290000FE8300003800002070B586B00DF1280C61
:102910009CE87000ADF814600495ADF80C408DE8AB
:102920000E0018226946FDF79AFC06B070BD000043
:102930002DE9F04387B014216846FDF7A9FC27482C
:102940000024016841F004010160016801F0040104
:102950000591016841F001010160016801F0010188
:102960000591016841F00201016000681C4F00F010
:1029700002004FF473750590002229463846FDF792
:10298000DDFDDFF860804FF4985600223146404666
:10299000FDF7D4FDDFF85090002240214846FDF7B6
:1029A000CDFD00950125CDE90154694638460394D3
:1029B000FDF7F2FC0096CDE90154694640460394C8
:1029C000FDF7EAFC40200090CDE9015469464846F5
:1029D0000394FDF7E1FC07B0BDE8F0833038024016
:1029E000000802400000024000040240FEE7704779
:1029F00070477047FEF71ABA10B594B03421684694
:102A0000FDF746FC14210DA8FDF742FC15480024F3
:102A1000016841F080510160006800F08050129020
:102A20001148016821F4404141F48041016000688F
:102A3000069400F440401290022000900120039080
:102A4000102004906846FEF78FFB0F20CDE90D049F
:102A50000F94109400210DA81194FEF781FA14B080
:102A600010BD00004038024000700040104801686E
:102A700041F4700101600F48016841F001010160FB
:102A80000C4A00210832116002680B4B1A400260A8
:102A9000031D0A4A1A60026822F480220260054877
:102AA0000C30016002495806803908607047000008
:102AB00088ED00E000380240FFFFF6FE10300024F1
:102AC0000148FEF775BD00009C000020F0B50268CB
:102AD000254C264D264E274F274B4FF0804CA042C9
:102AE00009D0604507D0A84205D0B04203D0B84213
:102AF00001D0984204D122F0700E4A6842EA0E02D8
:102B0000A0421BD0604519D0A84217D0B04215D0C2
:102B1000B84213D0984211D0184DA8420ED0184D8B
:102B2000A8420BD0174DA84208D0174DA84205D097
:102B3000164DA84202D0164DA84203D122F440758A
:102B4000CA682A434D6922F080022A4302608A68DB
:102B5000C2620A688262A04201D0984201D109692A
:102B6000016301214161F0BD00000140000400400B
:102B700000080040000C00400004014000400140FB
:102B8000004401400048014000180040001C004083
:102B90000020004010B5806B0021C185C184FEF784
:102BA000D4FD10BD0168CA6822F49072CA60016841
:102BB0004A6922F001024A61202180F83A107047E8
:102BC00010B590F83A10222901D0022010BD81687A
:102BD000B1F5805F11D00169002901681FD04968F3
:102BE00001F07F03816A4A1C82620B70C18D491E0D
:102BF0000904090CC18518D02BE00269816A002AFA
:102C00000268526805D0D2B20A80816A491C81628A
:102C1000ECE7C2F308020A80816A891CF7E74A6878
:102C2000816A4B1C83620A70E0E70168CA6822F07F
:102C30002002CA600168CA6822F48072CA60016812
:102C40004A6922F001024A61202180F83A10FEF719
:102C500073FE002010BD00002DE9F041044600681D
:102C60000169E26821F44051114301612169A068C2
:102C7000E26908436169114322680843D16849F257
:102C80000C6399430143D16020684169A26921F432
:102C9000407111434161E2696425B2F5004F9748E4
:102CA000974922684FF032083FD08A4201D08242D1
:102CB0007CD1FEF7FDF900EBC00101EB001061686B
:102CC0008900B0FBF1F6FEF7F3F900EBC00101EB70
:102CD000001061688900B0FBF1F0B0FBF5F06FF017
:102CE0001801484306EB800108EB0110B0FBF5F03A
:102CF00000F0F006FEF7DCF900EBC00101EB00107C
:102D000061688900B0FBF1F0B0FBF5F006EB00164E
:102D1000FEF7CEF900EBC00101EB001061688900FD
:102D2000B0FBF1F7FEF7C4F9D2E08A4201D082424B
:102D30003DD1FEF7BDF900EBC00101EB0010616869
:102D40004900B0FBF1F0B0FBF5F00601FEF7B0F979
:102D500000EBC00101EB001061684900B0FBF1F726
:102D6000FEF7A6F900EBC00101EB00106168490015
:102D7000B0FBF1F0B0FBF5F06FF01801484307EB42
:102D8000800108EBC100B0FBF5F000F0F80006EBA5
:102D90004006FEF78DF900EBC00101EB0010616801
:102DA0004900B0FBF1F7FEF783F93CE055E0FEF790
:102DB0006FF900EBC00101EB001061684900B0FB46
:102DC000F1F0B0FBF5F00601FEF762F900EBC0018F
:102DD00001EB001061684900B0FBF1F7FEF758F90C
:102DE00000EBC00101EB001061684900B0FBF1F09D
:102DF000B0FBF5F06FF01801484307EB800108EBDA
:102E0000C100B0FBF5F000F0F80006EB4006FEF75D
:102E10003FF900EBC00101EB001061684900B0FB15
:102E2000F1F7FEF735F900EBC00101EB0010616826
:102E30004900B0FBF1F0B0FBF5F06FF0180148432A
:102E400007EB800108EBC100B0FBF5F000F00700D4
:102E5000216830448860BDE8F081FEF719F900EB85
:102E6000C00101EB001061688900B0FBF1F6FEF7CC
:102E70000FF900EBC00101EB001061688900B0FBA5
:102E8000F1F0B0FBF5F06FF01801484306EB80015C
:102E900008EB0110B0FBF5F000F0F006FEF7F8F8D3
:102EA00000EBC00101EB001061688900B0FBF1F09C
:102EB000B0FBF5F006EB0016FEF7EAF800EBC001F8
:102EC00001EB001061688900B0FBF1F7FEF7E0F854
:102ED00000EBC00101EB001061688900B0FBF1F06C
:102EE000B0FBF5F06FF01801484307EB800108EBE9
:102EF0000110B0FBF5F000F00F00A9E7001401404D
:102F00000010014090F83910212901D002207047AB
:102F10008168B1F5805F016A0BD04A1C02620268C9
:102F200009785160C18C491E0904090CC1840ED076
:102F300017E009880268C1F308015160016900299E
:102F4000016A02D0491C0162ECE7891CFBE70168B9
:102F5000CA6822F08002CA600068C16841F040017E
:102F6000C1600020704700000148FEF7EFBB000081
:102F7000DC000020FEE700000FB4084B10B504A9E8
:102F800002AA039800F02CF8044602A9002000F0E1
:102F9000D1F8204610BC5DF814FB00003531000864
:102FA0000907090E002804DB00F1E02080F8001476
:102FB000704700F00F0000F1E02080F8141D70470A
:102FC00002E008C8121F08C1002AFAD170477047F2
:102FD000002001E001C1121F002AFBD17047000050
:102FE0002DE9FF4F89B09B460446002506E02528C1
:102FF0000BD05A460B999047641C6D1C2078002812
:10300000F5D10DB02846BDE8F08F0027B846012263
:10301000474900E0074314F8013F203B02FA03F060
:103020000842F7D120782E2819D114F8010F47F063
:1030300004072A280ED06FF02F022078A0F130016B
:1030400009290CD808EB880102EB410100EB0108CB
:10305000641CF2E70A98641C50F8048B0A902078EC
:103060000028CED0642808D0692806D075281ED044
:103070005A460B9990476D1C58E00A994FF00A097F
:1030800001C90A91002802DA40422D2102E03905E7
:1030900004D52B218DF82010012103E0F90704D07D
:1030A0002021F7E78A4608AE0DE00021FAE70A99E9
:1030B0004FF00A0901C90A91F7E74946FDF7FAF806
:1030C000303106F8011D0028F7D1ADEB060000F104
:1030D0002009780701D44FF00108C84502DDA8EBAC
:1030E000090000E000208046002706E008A85A46B4
:1030F000C05D0B9990476D1C7F1C5745F6DB04E0C3
:1031000030205A460B9990476D1CB8F10001A8F188
:103110000108F5DC05E016F8010B5A460B999047BB
:103120006D1CB9F10001A9F10109F4DC641C65E72B
:10313000092801000A68531C0B60107070470000DA
:1031400096B0FDF77BFEFFF757FCFFF7F1FB3C4D18
:103150003A48002428603B48C5E901044FF4804008
:10316000C5E903406C61AC61EC6128462C62FDF757
:103170007FFB05F1540000943349019401604FF442
:103180007A51C0E90114802609118661C160FEF7F9
:10319000C4F90094694605F154000194FEF79CF9C6
:1031A00005F19400294901604FF4E131C0E90114AF
:1031B0000C21C460C0E904418461C461FEF74EFB88
:1031C0002022234909A8FDF74AF8214B0DF1440CB0
:1031D00020330FCB8CE80F001E484021CDE90010B2
:1031E0001D4B11AA029609A903A8FFF78DFB03A89E
:1031F000FFF73CFA012219A103A8FFF78DFA1B4E35
:1032000028467560FEF7BAFB7068FEF767FC7068C9
:10321000FFF7F6FA7068FFF747FB05F15400FEF779
:10322000B5F93078012803D00A20FDF7A3F8F8E7B4
:1032300003A8FFF73FFA3470F3E7000000540040A2
:1032400048000020A086010000100040004400401B
:10325000703200080008024000040240496E6963B1
:103260006A616C697A61636A610000000000002095
:10327000000802400000024000080240000802402E
:103280000000024000000240000802400008024026
:1032900040000010040008000002000100020001CC
:1032A00000000000000000000102030406070809F6
:1032B0000000000001020304D832000800000020D2
:1032C00048000000C02F00082033000848000020FC
:1032D000F0040000D02F00080000000000000000F3
:1032E0000100000010000000000000000024F400B5
:1032F0001B8501000012100000000000000000000B
:1033000000000000000000000000000000000000BD
:1033100000000000000000000000000000000000AD
:04000005080001C529
:00000001FF
